:020000040800F2
:1000000078060020B5030008D3010008D5010008D8
:10001000D9010008DD010008E1010008000000002E
:10002000000000000000000000000000E5010008E2
:10003000E701000800000000E9010008EB010008EA
:10004000CF030008CF030008CF030008CF03000848
:10005000CF030008CF030008CF030008CF03000838
:10006000CF030008CF030008CF030008CF03000828
:10007000CF030008CF030008CF030008CF03000818
:10008000CF030008CF030008CF030008CF03000808
:10009000CF030008CF030008CF030008CF030008F8
:1000A000CF030008CF030008CF030008CF030008E8
:1000B000CF030008CF030008CF030008CF030008D8
:1000C000CF030008CF030008CF030008CF030008C8
:1000D000CF030008CF030008CF030008CF030008B8
:1000E000CF030008CF030008CF030008CF030008A8
:1000F000CF030008CF030008CF030008CF03000898
:10010000CF030008CF030008CF030008CF03000887
:10011000CF030008CF030008CF030008CF03000877
:10012000CF030008CF030008CF030008CF03000867
:1001300000F002F800F03CF80AA090E8000C8244BD
:100140008344AAF10107DA4501D100F031F8AFF29A
:10015000090EBAE80F0013F0010F18BFFB1A43F0A5
:10016000010318471C0300003C030000103A24BFA1
:1001700078C878C1FAD8520724BF30C830C144BF0C
:1001800004680C607047000000230024002500264E
:10019000103A28BF78C1FBD8520728BF30C148BFEA
:1001A0000B6070471FB500F064F91FBD10B510BD9E
:1001B00000F023F91146FFF7F5FF00F008F800F012
:1001C00041F903B4FFF7F2FF03BC00F04BF9002044
:1001D0007047704700BFFEE700BFFEE700BFFEE7C5
:1001E00000BFFEE77047704770477047002100204E
:1001F000674A126842F48032654B1A6000BF644A55
:10020000126802F40030491C10B9B1F5A06FF6D1A4
:100210005F4A126812F4003F01D0012000E0002084
:10022000012842D15B4A126842F01002594B1A6011
:100230001A46126822F003021A601A46126842F047
:1002400002021A60524A5268514B5A601A4652686A
:100250005A601A46526842F480625A601A465268DE
:1002600022F47C125A601A46526842F4E8125A602C
:100270001A46126842F080721A6000BF444A12683F
:1002800012F0007FFAD0424A526822F00302404B3B
:100290005A601A46526842F002025A6000BF3C4A55
:1002A000526802F00C02082AF9D1704710B5FFF726
:1002B0009DFF10BD10B53648006840F0010034497C
:1002C000086008464068344908403149486008469B
:1002D0000068324908402E4908600846006820F44A
:1002E000802008600846406820F4FE0048604FF413
:1002F0001F008860FFF7DAFF4FF0006028490860B0
:1003000010BD10B5002100200022214B5B6803F0D6
:100310000C0121B1042906D0082928D107E0214B7E
:10032000214C236027E01F4B1F4C236023E0184B18
:100330005B6803F47010164B5B6803F48032022391
:1003400003EB904022B9194B4343174C23600DE057
:100350000F4B5B6813F4003F04D0144B4343124C23
:10036000236003E00F4B43430F4C236003E00D4B2E
:100370000D4C236000BF00BF054B5B68C3F3031344
:100380000B4CE15C084B1B68CB40074C236010BD55
:1003900000100240002002400000FFF8FFFFF6FEC0
:1003A00008ED00E000127A000000002000093D0086
:1003B000040000200948804709480047FEE7FEE79F
:1003C000FEE7FEE7FEE7FEE7FEE7FEE7FEE7FEE705
:1003D00004480549054A064B70470000B50200086D
:1003E0003101000878000020780600207802002003
:1003F00078020020704770477047754600F028F873
:10040000AE4605006946534620F00700854618B001
:1004100020B5FFF7DDFFBDE820404FF000064FF0AC
:1004200000074FF000084FF0000B21F00701AC4629
:10043000ACE8C009ACE8C009ACE8C009ACE8C00948
:100440008D4670470446AFF300802046FFF7B9FEA3
:10045000004870471400002001487047704700BFF3
:100460001800002001491820ABBEFEE7260002005C
:10047000704710B5FFF7F0FF4FF00001016010BDAD
:10048000A004000800000020140000006C01000817
:10049000B40400081400002064060000880100086D
:1004A00000A24A0400000000000000000102030452
:0404B000060708092A
:0400000508000131BD
:00000001FF
